{
  "_format": "hh-sol-artifact-1",
  "contractName": "TokenR",
  "sourceName": "contracts/TokenR.sol",
  "abi": [
    {
      "anonymous": false,
      "inputs": [
        {
          "indexed": false,
          "internalType": "address",
          "name": "previousAdmin",
          "type": "address"
        },
        {
          "indexed": false,
          "internalType": "address",
          "name": "newAdmin",
          "type": "address"
        }
      ],
      "name": "AdminChanged",
      "type": "event"
    },
    {
      "anonymous": false,
      "inputs": [
        {
          "indexed": true,
          "internalType": "address",
          "name": "owner",
          "type": "address"
        },
        {
          "indexed": true,
          "internalType": "address",
          "name": "spender",
          "type": "address"
        },
        {
          "indexed": false,
          "internalType": "uint256",
          "name": "value",
          "type": "uint256"
        }
      ],
      "name": "Approval",
      "type": "event"
    },
    {
      "anonymous": false,
      "inputs": [
        {
          "indexed": true,
          "internalType": "address",
          "name": "beacon",
          "type": "address"
        }
      ],
      "name": "BeaconUpgraded",
      "type": "event"
    },
    {
      "anonymous": false,
      "inputs": [
        {
          "indexed": true,
          "internalType": "address",
          "name": "previousOwner",
          "type": "address"
        },
        {
          "indexed": true,
          "internalType": "address",
          "name": "newOwner",
          "type": "address"
        }
      ],
      "name": "OwnershipTransferred",
      "type": "event"
    },
    {
      "anonymous": false,
      "inputs": [
        {
          "indexed": false,
          "internalType": "address",
          "name": "account",
          "type": "address"
        }
      ],
      "name": "Paused",
      "type": "event"
    },
    {
      "anonymous": false,
      "inputs": [
        {
          "indexed": true,
          "internalType": "address",
          "name": "from",
          "type": "address"
        },
        {
          "indexed": true,
          "internalType": "address",
          "name": "to",
          "type": "address"
        },
        {
          "indexed": false,
          "internalType": "uint256",
          "name": "value",
          "type": "uint256"
        }
      ],
      "name": "Transfer",
      "type": "event"
    },
    {
      "anonymous": false,
      "inputs": [
        {
          "indexed": false,
          "internalType": "address",
          "name": "account",
          "type": "address"
        }
      ],
      "name": "Unpaused",
      "type": "event"
    },
    {
      "anonymous": false,
      "inputs": [
        {
          "indexed": true,
          "internalType": "address",
          "name": "implementation",
          "type": "address"
        }
      ],
      "name": "Upgraded",
      "type": "event"
    },
    {
      "inputs": [
        {
          "internalType": "address",
          "name": "owner",
          "type": "address"
        },
        {
          "internalType": "address",
          "name": "spender",
          "type": "address"
        }
      ],
      "name": "allowance",
      "outputs": [
        {
          "internalType": "uint256",
          "name": "",
          "type": "uint256"
        }
      ],
      "stateMutability": "view",
      "type": "function"
    },
    {
      "inputs": [
        {
          "internalType": "address",
          "name": "spender",
          "type": "address"
        },
        {
          "internalType": "uint256",
          "name": "amount",
          "type": "uint256"
        }
      ],
      "name": "approve",
      "outputs": [
        {
          "internalType": "bool",
          "name": "",
          "type": "bool"
        }
      ],
      "stateMutability": "nonpayable",
      "type": "function"
    },
    {
      "inputs": [
        {
          "internalType": "address",
          "name": "account",
          "type": "address"
        }
      ],
      "name": "balanceOf",
      "outputs": [
        {
          "internalType": "uint256",
          "name": "",
          "type": "uint256"
        }
      ],
      "stateMutability": "view",
      "type": "function"
    },
    {
      "inputs": [
        {
          "internalType": "uint256",
          "name": "amount",
          "type": "uint256"
        }
      ],
      "name": "burn",
      "outputs": [],
      "stateMutability": "nonpayable",
      "type": "function"
    },
    {
      "inputs": [
        {
          "internalType": "address",
          "name": "account",
          "type": "address"
        },
        {
          "internalType": "uint256",
          "name": "amount",
          "type": "uint256"
        }
      ],
      "name": "burnFrom",
      "outputs": [],
      "stateMutability": "nonpayable",
      "type": "function"
    },
    {
      "inputs": [],
      "name": "decimals",
      "outputs": [
        {
          "internalType": "uint8",
          "name": "",
          "type": "uint8"
        }
      ],
      "stateMutability": "view",
      "type": "function"
    },
    {
      "inputs": [
        {
          "internalType": "address",
          "name": "spender",
          "type": "address"
        },
        {
          "internalType": "uint256",
          "name": "subtractedValue",
          "type": "uint256"
        }
      ],
      "name": "decreaseAllowance",
      "outputs": [
        {
          "internalType": "bool",
          "name": "",
          "type": "bool"
        }
      ],
      "stateMutability": "nonpayable",
      "type": "function"
    },
    {
      "inputs": [
        {
          "internalType": "address",
          "name": "spender",
          "type": "address"
        },
        {
          "internalType": "uint256",
          "name": "addedValue",
          "type": "uint256"
        }
      ],
      "name": "increaseAllowance",
      "outputs": [
        {
          "internalType": "bool",
          "name": "",
          "type": "bool"
        }
      ],
      "stateMutability": "nonpayable",
      "type": "function"
    },
    {
      "inputs": [
        {
          "internalType": "string",
          "name": "_name",
          "type": "string"
        },
        {
          "internalType": "string",
          "name": "_symbol",
          "type": "string"
        }
      ],
      "name": "initialize",
      "outputs": [],
      "stateMutability": "nonpayable",
      "type": "function"
    },
    {
      "inputs": [],
      "name": "name",
      "outputs": [
        {
          "internalType": "string",
          "name": "",
          "type": "string"
        }
      ],
      "stateMutability": "view",
      "type": "function"
    },
    {
      "inputs": [],
      "name": "owner",
      "outputs": [
        {
          "internalType": "address",
          "name": "",
          "type": "address"
        }
      ],
      "stateMutability": "view",
      "type": "function"
    },
    {
      "inputs": [],
      "name": "paused",
      "outputs": [
        {
          "internalType": "bool",
          "name": "",
          "type": "bool"
        }
      ],
      "stateMutability": "view",
      "type": "function"
    },
    {
      "inputs": [],
      "name": "proxiableUUID",
      "outputs": [
        {
          "internalType": "bytes32",
          "name": "",
          "type": "bytes32"
        }
      ],
      "stateMutability": "view",
      "type": "function"
    },
    {
      "inputs": [],
      "name": "renounceOwnership",
      "outputs": [],
      "stateMutability": "nonpayable",
      "type": "function"
    },
    {
      "inputs": [],
      "name": "symbol",
      "outputs": [
        {
          "internalType": "string",
          "name": "",
          "type": "string"
        }
      ],
      "stateMutability": "view",
      "type": "function"
    },
    {
      "inputs": [],
      "name": "totalSupply",
      "outputs": [
        {
          "internalType": "uint256",
          "name": "",
          "type": "uint256"
        }
      ],
      "stateMutability": "view",
      "type": "function"
    },
    {
      "inputs": [
        {
          "internalType": "address",
          "name": "to",
          "type": "address"
        },
        {
          "internalType": "uint256",
          "name": "amount",
          "type": "uint256"
        }
      ],
      "name": "transfer",
      "outputs": [
        {
          "internalType": "bool",
          "name": "",
          "type": "bool"
        }
      ],
      "stateMutability": "nonpayable",
      "type": "function"
    },
    {
      "inputs": [
        {
          "internalType": "address",
          "name": "from",
          "type": "address"
        },
        {
          "internalType": "address",
          "name": "to",
          "type": "address"
        },
        {
          "internalType": "uint256",
          "name": "amount",
          "type": "uint256"
        }
      ],
      "name": "transferFrom",
      "outputs": [
        {
          "internalType": "bool",
          "name": "",
          "type": "bool"
        }
      ],
      "stateMutability": "nonpayable",
      "type": "function"
    },
    {
      "inputs": [
        {
          "internalType": "address",
          "name": "newOwner",
          "type": "address"
        }
      ],
      "name": "transferOwnership",
      "outputs": [],
      "stateMutability": "nonpayable",
      "type": "function"
    },
    {
      "inputs": [
        {
          "internalType": "address",
          "name": "newImplementation",
          "type": "address"
        }
      ],
      "name": "upgradeTo",
      "outputs": [],
      "stateMutability": "nonpayable",
      "type": "function"
    },
    {
      "inputs": [
        {
          "internalType": "address",
          "name": "newImplementation",
          "type": "address"
        },
        {
          "internalType": "bytes",
          "name": "data",
          "type": "bytes"
        }
      ],
      "name": "upgradeToAndCall",
      "outputs": [],
      "stateMutability": "payable",
      "type": "function"
    }
  ],
  "bytecode": "0x60a06040523060805234801561001457600080fd5b50608051611a2b61004c600039600081816104d10152818161051a015281816106df0152818161071f01526107b20152611a2b6000f3fe60806040526004361061012a5760003560e01c806352d1902d116100ab5780638da5cb5b1161006f5780638da5cb5b1461031257806395d89b411461033a578063a457c2d71461034f578063a9059cbb1461036f578063dd62ed3e1461038f578063f2fde38b146103d557600080fd5b806352d1902d1461027a5780635c975abb1461028f57806370a08231146102a7578063715018a6146102dd57806379cc6790146102f257600080fd5b80633659cfe6116100f25780633659cfe6146101e5578063395093511461020757806342966c68146102275780634cd88b76146102475780634f1ef2861461026757600080fd5b806306fdde031461012f578063095ea7b31461015a57806318160ddd1461018a57806323b872dd146101a9578063313ce567146101c9575b600080fd5b34801561013b57600080fd5b506101446103f5565b6040516101519190611459565b60405180910390f35b34801561016657600080fd5b5061017a6101753660046114a8565b610487565b6040519015158152602001610151565b34801561019657600080fd5b506035545b604051908152602001610151565b3480156101b557600080fd5b5061017a6101c43660046114d2565b6104a1565b3480156101d557600080fd5b5060405160128152602001610151565b3480156101f157600080fd5b5061020561020036600461150e565b6104c7565b005b34801561021357600080fd5b5061017a6102223660046114a8565b6105af565b34801561023357600080fd5b50610205610242366004611529565b6105ee565b34801561025357600080fd5b506102056102623660046115ee565b6105f8565b610205610275366004611652565b6106d5565b34801561028657600080fd5b5061019b6107a5565b34801561029b57600080fd5b5060975460ff1661017a565b3480156102b357600080fd5b5061019b6102c236600461150e565b6001600160a01b031660009081526033602052604090205490565b3480156102e957600080fd5b50610205610858565b3480156102fe57600080fd5b5061020561030d3660046114a8565b61088e565b34801561031e57600080fd5b5060c9546040516001600160a01b039091168152602001610151565b34801561034657600080fd5b506101446108a3565b34801561035b57600080fd5b5061017a61036a3660046114a8565b6108b2565b34801561037b57600080fd5b5061017a61038a3660046114a8565b61094f565b34801561039b57600080fd5b5061019b6103aa3660046116aa565b6001600160a01b03918216600090815260346020908152604080832093909416825291909152205490565b3480156103e157600080fd5b506102056103f036600461150e565b61095d565b606060368054610404906116dd565b80601f0160208091040260200160405190810160405280929190818152602001828054610430906116dd565b801561047d5780601f106104525761010080835404028352916020019161047d565b820191906000526020600020905b81548152906001019060200180831161046057829003601f168201915b5050505050905090565b6000336104958185856109f5565b60019150505b92915050565b6000336104af858285610b19565b6104ba858585610bab565b60019150505b9392505050565b6001600160a01b037f00000000000000000000000000000000000000000000000000000000000000001630036105185760405162461bcd60e51b815260040161050f90611717565b60405180910390fd5b7f00000000000000000000000000000000000000000000000000000000000000006001600160a01b03166105616000805160206119af833981519152546001600160a01b031690565b6001600160a01b0316146105875760405162461bcd60e51b815260040161050f90611763565b61059081610d79565b604080516000808252602082019092526105ac91839190610da3565b50565b3360008181526034602090815260408083206001600160a01b038716845290915281205490919061049590829086906105e99087906117c5565b6109f5565b6105ac3382610f0e565b600054610100900460ff166106135760005460ff1615610617565b303b155b61067a5760405162461bcd60e51b815260206004820152602e60248201527f496e697469616c697a61626c653a20636f6e747261637420697320616c72656160448201526d191e481a5b9a5d1a585b1a5e995960921b606482015260840161050f565b600054610100900460ff1615801561069c576000805461ffff19166101011790555b6106a6838361105c565b6106ae61108d565b6106b66110b4565b6106be6110e3565b80156106d0576000805461ff00191690555b505050565b6001600160a01b037f000000000000000000000000000000000000000000000000000000000000000016300361071d5760405162461bcd60e51b815260040161050f90611717565b7f00000000000000000000000000000000000000000000000000000000000000006001600160a01b03166107666000805160206119af833981519152546001600160a01b031690565b6001600160a01b03161461078c5760405162461bcd60e51b815260040161050f90611763565b61079582610d79565b6107a182826001610da3565b5050565b6000306001600160a01b037f000000000000000000000000000000000000000000000000000000000000000016146108455760405162461bcd60e51b815260206004820152603860248201527f555550535570677261646561626c653a206d757374206e6f742062652063616c60448201527f6c6564207468726f7567682064656c656761746563616c6c0000000000000000606482015260840161050f565b506000805160206119af83398151915290565b60c9546001600160a01b031633146108825760405162461bcd60e51b815260040161050f906117d8565b61088c6000611112565b565b610899823383610b19565b6107a18282610f0e565b606060378054610404906116dd565b3360008181526034602090815260408083206001600160a01b0387168452909152812054909190838110156109375760405162461bcd60e51b815260206004820152602560248201527f45524332303a2064656372656173656420616c6c6f77616e63652062656c6f77604482015264207a65726f60d81b606482015260840161050f565b61094482868684036109f5565b506001949350505050565b600033610495818585610bab565b60c9546001600160a01b031633146109875760405162461bcd60e51b815260040161050f906117d8565b6001600160a01b0381166109ec5760405162461bcd60e51b815260206004820152602660248201527f4f776e61626c653a206e6577206f776e657220697320746865207a65726f206160448201526564647265737360d01b606482015260840161050f565b6105ac81611112565b6001600160a01b038316610a575760405162461bcd60e51b8152602060048201526024808201527f45524332303a20617070726f76652066726f6d20746865207a65726f206164646044820152637265737360e01b606482015260840161050f565b6001600160a01b038216610ab85760405162461bcd60e51b815260206004820152602260248201527f45524332303a20617070726f766520746f20746865207a65726f206164647265604482015261737360f01b606482015260840161050f565b6001600160a01b0383811660008181526034602090815260408083209487168084529482529182902085905590518481527f8c5be1e5ebec7d5bd14f71427d1e84f3dd0314c0f7b2291e5b200ac8c7c3b925910160405180910390a3505050565b6001600160a01b038381166000908152603460209081526040808320938616835292905220546000198114610ba55781811015610b985760405162461bcd60e51b815260206004820152601d60248201527f45524332303a20696e73756666696369656e7420616c6c6f77616e6365000000604482015260640161050f565b610ba584848484036109f5565b50505050565b6001600160a01b038316610c0f5760405162461bcd60e51b815260206004820152602560248201527f45524332303a207472616e736665722066726f6d20746865207a65726f206164604482015264647265737360d81b606482015260840161050f565b6001600160a01b038216610c715760405162461bcd60e51b815260206004820152602360248201527f45524332303a207472616e7366657220746f20746865207a65726f206164647260448201526265737360e81b606482015260840161050f565b6001600160a01b03831660009081526033602052604090205481811015610ce95760405162461bcd60e51b815260206004820152602660248201527f45524332303a207472616e7366657220616d6f756e7420657863656564732062604482015265616c616e636560d01b606482015260840161050f565b6001600160a01b03808516600090815260336020526040808220858503905591851681529081208054849290610d209084906117c5565b92505081905550826001600160a01b0316846001600160a01b03167fddf252ad1be2c89b69c2b068fc378daa952ba7f163c4a11628f55a4df523b3ef84604051610d6c91815260200190565b60405180910390a3610ba5565b60c9546001600160a01b031633146105ac5760405162461bcd60e51b815260040161050f906117d8565b7f4910fdfa16fed3260ed0e7147f7cc6da11a60208b5b9406d12a635614ffd91435460ff1615610dd6576106d083611164565b826001600160a01b03166352d1902d6040518163ffffffff1660e01b8152600401602060405180830381865afa925050508015610e30575060408051601f3d908101601f19168201909252610e2d9181019061180d565b60015b610e935760405162461bcd60e51b815260206004820152602e60248201527f45524331393637557067726164653a206e657720696d706c656d656e7461746960448201526d6f6e206973206e6f74205555505360901b606482015260840161050f565b6000805160206119af8339815191528114610f025760405162461bcd60e51b815260206004820152602960248201527f45524331393637557067726164653a20756e737570706f727465642070726f786044820152681a58589b195555525160ba1b606482015260840161050f565b506106d0838383611200565b6001600160a01b038216610f6e5760405162461bcd60e51b815260206004820152602160248201527f45524332303a206275726e2066726f6d20746865207a65726f206164647265736044820152607360f81b606482015260840161050f565b6001600160a01b03821660009081526033602052604090205481811015610fe25760405162461bcd60e51b815260206004820152602260248201527f45524332303a206275726e20616d6f756e7420657863656564732062616c616e604482015261636560f01b606482015260840161050f565b6001600160a01b0383166000908152603360205260408120838303905560358054849290611011908490611826565b90915550506040518281526000906001600160a01b038516907fddf252ad1be2c89b69c2b068fc378daa952ba7f163c4a11628f55a4df523b3ef9060200160405180910390a3505050565b600054610100900460ff166110835760405162461bcd60e51b815260040161050f90611839565b6107a18282611225565b600054610100900460ff1661088c5760405162461bcd60e51b815260040161050f90611839565b600054610100900460ff166110db5760405162461bcd60e51b815260040161050f90611839565b61088c611265565b600054610100900460ff1661110a5760405162461bcd60e51b815260040161050f90611839565b61088c611298565b60c980546001600160a01b038381166001600160a01b0319831681179093556040519116919082907f8be0079c531659141344cd1fd0a4f28419497f9722a3daafe3b4186f6b6457e090600090a35050565b6001600160a01b0381163b6111d15760405162461bcd60e51b815260206004820152602d60248201527f455243313936373a206e657720696d706c656d656e746174696f6e206973206e60448201526c1bdd08184818dbdb9d1c9858dd609a1b606482015260840161050f565b6000805160206119af83398151915280546001600160a01b0319166001600160a01b0392909216919091179055565b611209836112c8565b6000825111806112165750805b156106d057610ba58383611308565b600054610100900460ff1661124c5760405162461bcd60e51b815260040161050f90611839565b603661125883826118d2565b5060376106d082826118d2565b600054610100900460ff1661128c5760405162461bcd60e51b815260040161050f90611839565b6097805460ff19169055565b600054610100900460ff166112bf5760405162461bcd60e51b815260040161050f90611839565b61088c33611112565b6112d181611164565b6040516001600160a01b038216907fbc7cd75a20ee27fd9adebab32041f755214dbc6bffa90cc0225b39da2e5c2d3b90600090a250565b60606001600160a01b0383163b6113705760405162461bcd60e51b815260206004820152602660248201527f416464726573733a2064656c65676174652063616c6c20746f206e6f6e2d636f6044820152651b9d1c9858dd60d21b606482015260840161050f565b600080846001600160a01b03168460405161138b9190611992565b600060405180830381855af49150503d80600081146113c6576040519150601f19603f3d011682016040523d82523d6000602084013e6113cb565b606091505b50915091506113f382826040518060600160405280602781526020016119cf602791396113fc565b95945050505050565b6060831561140b5750816104c0565b82511561141b5782518084602001fd5b8160405162461bcd60e51b815260040161050f9190611459565b60005b83811015611450578181015183820152602001611438565b50506000910152565b6020815260008251806020840152611478816040850160208701611435565b601f01601f19169190910160400192915050565b80356001600160a01b03811681146114a357600080fd5b919050565b600080604083850312156114bb57600080fd5b6114c48361148c565b946020939093013593505050565b6000806000606084860312156114e757600080fd5b6114f08461148c565b92506114fe6020850161148c565b9150604084013590509250925092565b60006020828403121561152057600080fd5b6104c08261148c565b60006020828403121561153b57600080fd5b5035919050565b634e487b7160e01b600052604160045260246000fd5b600067ffffffffffffffff8084111561157357611573611542565b604051601f8501601f19908116603f0116810190828211818310171561159b5761159b611542565b816040528093508581528686860111156115b457600080fd5b858560208301376000602087830101525050509392505050565b600082601f8301126115df57600080fd5b6104c083833560208501611558565b6000806040838503121561160157600080fd5b823567ffffffffffffffff8082111561161957600080fd5b611625868387016115ce565b9350602085013591508082111561163b57600080fd5b50611648858286016115ce565b9150509250929050565b6000806040838503121561166557600080fd5b61166e8361148c565b9150602083013567ffffffffffffffff81111561168a57600080fd5b8301601f8101851361169b57600080fd5b61164885823560208401611558565b600080604083850312156116bd57600080fd5b6116c68361148c565b91506116d46020840161148c565b90509250929050565b600181811c908216806116f157607f821691505b60208210810361171157634e487b7160e01b600052602260045260246000fd5b50919050565b6020808252602c908201527f46756e6374696f6e206d7573742062652063616c6c6564207468726f7567682060408201526b19195b1959d85d1958d85b1b60a21b606082015260800190565b6020808252602c908201527f46756e6374696f6e206d7573742062652063616c6c6564207468726f7567682060408201526b6163746976652070726f787960a01b606082015260800190565b634e487b7160e01b600052601160045260246000fd5b8082018082111561049b5761049b6117af565b6020808252818101527f4f776e61626c653a2063616c6c6572206973206e6f7420746865206f776e6572604082015260600190565b60006020828403121561181f57600080fd5b5051919050565b8181038181111561049b5761049b6117af565b6020808252602b908201527f496e697469616c697a61626c653a20636f6e7472616374206973206e6f74206960408201526a6e697469616c697a696e6760a81b606082015260800190565b601f8211156106d057600081815260208120601f850160051c810160208610156118ab5750805b601f850160051c820191505b818110156118ca578281556001016118b7565b505050505050565b815167ffffffffffffffff8111156118ec576118ec611542565b611900816118fa84546116dd565b84611884565b602080601f831160018114611935576000841561191d5750858301515b600019600386901b1c1916600185901b1785556118ca565b600085815260208120601f198616915b8281101561196457888601518255948401946001909101908401611945565b50858210156119825787850151600019600388901b60f8161c191681555b5050505050600190811b01905550565b600082516119a4818460208701611435565b919091019291505056fe360894a13ba1a3210667c828492db98dca3e2076cc3735a920a3ca505d382bbc416464726573733a206c6f772d6c6576656c2064656c65676174652063616c6c206661696c6564a264697066735822122001ece3ba2f1647f1ba1a88c4358d3d231d9cdcdcc0c3c456ecc6c8b47ae7ced464736f6c63430008110033",
  "linkReferences": {},
  "deployedLinkReferences": {}
}