{
  "_format": "hh-sol-artifact-1",
  "contractName": "TokenFactoryR",
  "sourceName": "contracts/TokenFactoryR.sol",
  "abi": [
    {
      "anonymous": false,
      "inputs": [
        {
          "indexed": true,
          "internalType": "address",
          "name": "previousOwner",
          "type": "address"
        },
        {
          "indexed": true,
          "internalType": "address",
          "name": "newOwner",
          "type": "address"
        }
      ],
      "name": "OwnershipTransferred",
      "type": "event"
    },
    {
      "inputs": [
        {
          "internalType": "string",
          "name": "_name",
          "type": "string"
        },
        {
          "internalType": "string",
          "name": "_symbol",
          "type": "string"
        }
      ],
      "name": "createProxyContract",
      "outputs": [],
      "stateMutability": "nonpayable",
      "type": "function"
    },
    {
      "inputs": [],
      "name": "getCurrentCounter",
      "outputs": [
        {
          "internalType": "uint256",
          "name": "",
          "type": "uint256"
        }
      ],
      "stateMutability": "view",
      "type": "function"
    },
    {
      "inputs": [
        {
          "internalType": "uint256",
          "name": "id",
          "type": "uint256"
        }
      ],
      "name": "getProxyAddress",
      "outputs": [
        {
          "internalType": "address",
          "name": "",
          "type": "address"
        }
      ],
      "stateMutability": "view",
      "type": "function"
    },
    {
      "inputs": [
        {
          "internalType": "address",
          "name": "token",
          "type": "address"
        },
        {
          "internalType": "string",
          "name": "_version",
          "type": "string"
        }
      ],
      "name": "initialize",
      "outputs": [],
      "stateMutability": "nonpayable",
      "type": "function"
    },
    {
      "inputs": [],
      "name": "owner",
      "outputs": [
        {
          "internalType": "address",
          "name": "",
          "type": "address"
        }
      ],
      "stateMutability": "view",
      "type": "function"
    },
    {
      "inputs": [],
      "name": "renounceOwnership",
      "outputs": [],
      "stateMutability": "nonpayable",
      "type": "function"
    },
    {
      "inputs": [
        {
          "internalType": "address",
          "name": "newOwner",
          "type": "address"
        }
      ],
      "name": "transferOwnership",
      "outputs": [],
      "stateMutability": "nonpayable",
      "type": "function"
    },
    {
      "inputs": [],
      "name": "versionContract",
      "outputs": [
        {
          "internalType": "string",
          "name": "",
          "type": "string"
        }
      ],
      "stateMutability": "view",
      "type": "function"
    }
  ],
  "bytecode": "0x608060405234801561001057600080fd5b50611512806100206000396000f3fe60806040523480156200001157600080fd5b5060043610620000935760003560e01c8063a882d8661162000062578063a882d8661462000118578063adedd3211462000131578063f2fde38b1462000148578063f399e22e146200015f57600080fd5b8063384ba7f21462000098578063715018a614620000e157806373448c4614620000ed5780638da5cb5b1462000106575b600080fd5b620000c4620000a936600462000568565b6000908152606560205260409020546001600160a01b031690565b6040516001600160a01b0390911681526020015b60405180910390f35b620000eb62000176565b005b620000f7620001ba565b604051908152602001620000d8565b6033546001600160a01b0316620000c4565b62000122620001cb565b604051620000d89190620005ca565b620000eb6200014236600462000691565b62000265565b620000eb6200015936600462000719565b62000370565b620000eb6200017036600462000737565b62000412565b6033546001600160a01b03163314620001ac5760405162461bcd60e51b8152600401620001a39062000781565b60405180910390fd5b620001b8600062000508565b565b6000620001c660665490565b905090565b606060678054620001dc90620007b6565b80601f01602080910402602001604051908101604052809291908181526020018280546200020a90620007b6565b80156200025b5780601f106200022f576101008083540402835291602001916200025b565b820191906000526020600020905b8154815290600101906020018083116200023d57829003601f168201915b5050505050905090565b6033546001600160a01b03163314620002925760405162461bcd60e51b8152600401620001a39062000781565b6068546040516000916001600160a01b03169063266c45bb60e11b90620002c09086908690602401620007f2565b60408051601f198184030181529181526020820180516001600160e01b03166001600160e01b0319909416939093179092529051620002ff906200055a565b6200030c92919062000824565b604051809103906000f08015801562000329573d6000803e3d6000fd5b50905060006200033860665490565b600081815260656020526040902080546001600160a01b0319166001600160a01b038516179055606680546001019055905050505050565b6033546001600160a01b031633146200039d5760405162461bcd60e51b8152600401620001a39062000781565b6001600160a01b038116620004045760405162461bcd60e51b815260206004820152602660248201527f4f776e61626c653a206e6577206f776e657220697320746865207a65726f206160448201526564647265737360d01b6064820152608401620001a3565b6200040f8162000508565b50565b600054610100900460ff166200042f5760005460ff161562000433565b303b155b620004985760405162461bcd60e51b815260206004820152602e60248201527f496e697469616c697a61626c653a20636f6e747261637420697320616c72656160448201526d191e481a5b9a5d1a585b1a5e995960921b6064820152608401620001a3565b600054610100900460ff16158015620004bb576000805461ffff19166101011790555b620004c63262000508565b6067620004d48382620008a4565b50606880546001600160a01b0319166001600160a01b038516179055801562000503576000805461ff00191690555b505050565b603380546001600160a01b038381166001600160a01b0319831681179093556040519116919082907f8be0079c531659141344cd1fd0a4f28419497f9722a3daafe3b4186f6b6457e090600090a35050565b610b6b806200097283390190565b6000602082840312156200057b57600080fd5b5035919050565b6000815180845260005b81811015620005aa576020818501810151868301820152016200058c565b506000602082860101526020601f19601f83011685010191505092915050565b602081526000620005df602083018462000582565b9392505050565b634e487b7160e01b600052604160045260246000fd5b600082601f8301126200060e57600080fd5b813567ffffffffffffffff808211156200062c576200062c620005e6565b604051601f8301601f19908116603f01168101908282118183101715620006575762000657620005e6565b816040528381528660208588010111156200067157600080fd5b836020870160208301376000602085830101528094505050505092915050565b60008060408385031215620006a557600080fd5b823567ffffffffffffffff80821115620006be57600080fd5b620006cc86838701620005fc565b93506020850135915080821115620006e357600080fd5b50620006f285828601620005fc565b9150509250929050565b80356001600160a01b03811681146200071457600080fd5b919050565b6000602082840312156200072c57600080fd5b620005df82620006fc565b600080604083850312156200074b57600080fd5b6200075683620006fc565b9150602083013567ffffffffffffffff8111156200077357600080fd5b620006f285828601620005fc565b6020808252818101527f4f776e61626c653a2063616c6c6572206973206e6f7420746865206f776e6572604082015260600190565b600181811c90821680620007cb57607f821691505b602082108103620007ec57634e487b7160e01b600052602260045260246000fd5b50919050565b60408152600062000807604083018562000582565b82810360208401526200081b818562000582565b95945050505050565b6001600160a01b03831681526040602082018190526000906200084a9083018462000582565b949350505050565b601f8211156200050357600081815260208120601f850160051c810160208610156200087b5750805b601f850160051c820191505b818110156200089c5782815560010162000887565b505050505050565b815167ffffffffffffffff811115620008c157620008c1620005e6565b620008d981620008d28454620007b6565b8462000852565b602080601f831160018114620009115760008415620008f85750858301515b600019600386901b1c1916600185901b1785556200089c565b600085815260208120601f198616915b82811015620009425788860151825594840194600190910190840162000921565b5085821015620009615787850151600019600388901b60f8161c191681555b5050505050600190811b0190555056fe60806040523480156200001157600080fd5b5060405162000b6b38038062000b6b8339810160408190526200003491620004bf565b81816200006360017f360894a13ba1a3210667c828492db98dca3e2076cc3735a920a3ca505d382bbd6200059a565b60008051602062000b2483398151915214620000835762000083620005bc565b6200009182826000620000b2565b506200009f905033620000ef565b620000aa326200013f565b505062000625565b620000bd8362000214565b600082511180620000cb5750805b15620000ea57620000e883836200025660201b620001f61760201c565b505b505050565b600080546001600160a01b038381166001600160a01b0319831681178455604051919092169283917f8be0079c531659141344cd1fd0a4f28419497f9722a3daafe3b4186f6b6457e09190a35050565b6000546001600160a01b031633146200019f5760405162461bcd60e51b815260206004820181905260248201527f4f776e61626c653a2063616c6c6572206973206e6f7420746865206f776e657260448201526064015b60405180910390fd5b6001600160a01b038116620002065760405162461bcd60e51b815260206004820152602660248201527f4f776e61626c653a206e6577206f776e657220697320746865207a65726f206160448201526564647265737360d01b606482015260840162000196565b6200021181620000ef565b50565b6200021f8162000287565b6040516001600160a01b038216907fbc7cd75a20ee27fd9adebab32041f755214dbc6bffa90cc0225b39da2e5c2d3b90600090a250565b60606200027e838360405180606001604052806027815260200162000b44602791396200034b565b90505b92915050565b6200029d816200043360201b620002221760201c565b620003015760405162461bcd60e51b815260206004820152602d60248201527f455243313936373a206e657720696d706c656d656e746174696f6e206973206e60448201526c1bdd08184818dbdb9d1c9858dd609a1b606482015260840162000196565b806200032a60008051602062000b2483398151915260001b6200044260201b620002311760201c565b80546001600160a01b0319166001600160a01b039290921691909117905550565b60606001600160a01b0384163b620003b55760405162461bcd60e51b815260206004820152602660248201527f416464726573733a2064656c65676174652063616c6c20746f206e6f6e2d636f6044820152651b9d1c9858dd60d21b606482015260840162000196565b600080856001600160a01b031685604051620003d29190620005d2565b600060405180830381855af49150503d80600081146200040f576040519150601f19603f3d011682016040523d82523d6000602084013e62000414565b606091505b5090925090506200042782828662000445565b925050505b9392505050565b6001600160a01b03163b151590565b90565b60608315620004565750816200042c565b825115620004675782518084602001fd5b8160405162461bcd60e51b8152600401620001969190620005f0565b634e487b7160e01b600052604160045260246000fd5b60005b83811015620004b65781810151838201526020016200049c565b50506000910152565b60008060408385031215620004d357600080fd5b82516001600160a01b0381168114620004eb57600080fd5b60208401519092506001600160401b03808211156200050957600080fd5b818501915085601f8301126200051e57600080fd5b81518181111562000533576200053362000483565b604051601f8201601f19908116603f011681019083821181831017156200055e576200055e62000483565b816040528281528860208487010111156200057857600080fd5b6200058b83602083016020880162000499565b80955050505050509250929050565b818103818111156200028157634e487b7160e01b600052601160045260246000fd5b634e487b7160e01b600052600160045260246000fd5b60008251620005e681846020870162000499565b9190910192915050565b60208152600082518060208401526200061181604085016020870162000499565b601f01601f19169190910160400192915050565b6104ef80620006356000396000f3fe6080604052600436106100385760003560e01c8063715018a61461004f5780638da5cb5b14610064578063f2fde38b1461009057610047565b36610047576100456100b0565b005b6100456100b0565b34801561005b57600080fd5b506100456100c2565b34801561007057600080fd5b50600054604080516001600160a01b039092168252519081900360200190f35b34801561009c57600080fd5b506100456100ab3660046103f6565b61012b565b6100c06100bb610234565b61026c565b565b6000546001600160a01b031633146101215760405162461bcd60e51b815260206004820181905260248201527f4f776e61626c653a2063616c6c6572206973206e6f7420746865206f776e657260448201526064015b60405180910390fd5b6100c06000610290565b6000546001600160a01b031633146101855760405162461bcd60e51b815260206004820181905260248201527f4f776e61626c653a2063616c6c6572206973206e6f7420746865206f776e65726044820152606401610118565b6001600160a01b0381166101ea5760405162461bcd60e51b815260206004820152602660248201527f4f776e61626c653a206e6577206f776e657220697320746865207a65726f206160448201526564647265737360d01b6064820152608401610118565b6101f381610290565b50565b606061021b8383604051806060016040528060278152602001610493602791396102e0565b9392505050565b6001600160a01b03163b151590565b90565b60006102677f360894a13ba1a3210667c828492db98dca3e2076cc3735a920a3ca505d382bbc546001600160a01b031690565b905090565b3660008037600080366000845af43d6000803e80801561028b573d6000f35b3d6000fd5b600080546001600160a01b038381166001600160a01b0319831681178455604051919092169283917f8be0079c531659141344cd1fd0a4f28419497f9722a3daafe3b4186f6b6457e09190a35050565b60606001600160a01b0384163b6103485760405162461bcd60e51b815260206004820152602660248201527f416464726573733a2064656c65676174652063616c6c20746f206e6f6e2d636f6044820152651b9d1c9858dd60d21b6064820152608401610118565b600080856001600160a01b0316856040516103639190610443565b600060405180830381855af49150503d806000811461039e576040519150601f19603f3d011682016040523d82523d6000602084013e6103a3565b606091505b50915091506103b38282866103bd565b9695505050505050565b606083156103cc57508161021b565b8251156103dc5782518084602001fd5b8160405162461bcd60e51b8152600401610118919061045f565b60006020828403121561040857600080fd5b81356001600160a01b038116811461021b57600080fd5b60005b8381101561043a578181015183820152602001610422565b50506000910152565b6000825161045581846020870161041f565b9190910192915050565b602081526000825180602084015261047e81604085016020870161041f565b601f01601f1916919091016040019291505056fe416464726573733a206c6f772d6c6576656c2064656c65676174652063616c6c206661696c6564a264697066735822122095c82ef3a92e2e0799aae837023ff6dc23e4f02bc4b5922fb043880be958669864736f6c63430008110033360894a13ba1a3210667c828492db98dca3e2076cc3735a920a3ca505d382bbc416464726573733a206c6f772d6c6576656c2064656c65676174652063616c6c206661696c6564a2646970667358221220b96a9fe70bd710c089dd06682c1b24795ebc6001840f8a3f768c905ca5cbb85264736f6c63430008110033",
  "linkReferences": {},
  "deployedLinkReferences": {}
}