{
  "_format": "hh-sol-artifact-1",
  "contractName": "TokenFactoryR",
  "sourceName": "contracts/TokenFactoryR.sol",
  "abi": [
    {
      "anonymous": false,
      "inputs": [
        {
          "indexed": true,
          "internalType": "address",
          "name": "previousOwner",
          "type": "address"
        },
        {
          "indexed": true,
          "internalType": "address",
          "name": "newOwner",
          "type": "address"
        }
      ],
      "name": "OwnershipTransferred",
      "type": "event"
    },
    {
      "inputs": [
        {
          "internalType": "string",
          "name": "_name",
          "type": "string"
        },
        {
          "internalType": "string",
          "name": "_symbol",
          "type": "string"
        }
      ],
      "name": "createProxyContract",
      "outputs": [],
      "stateMutability": "nonpayable",
      "type": "function"
    },
    {
      "inputs": [],
      "name": "getCurrentCounter",
      "outputs": [
        {
          "internalType": "uint256",
          "name": "",
          "type": "uint256"
        }
      ],
      "stateMutability": "view",
      "type": "function"
    },
    {
      "inputs": [
        {
          "internalType": "uint256",
          "name": "id",
          "type": "uint256"
        }
      ],
      "name": "getProxyAddress",
      "outputs": [
        {
          "internalType": "address",
          "name": "",
          "type": "address"
        }
      ],
      "stateMutability": "view",
      "type": "function"
    },
    {
      "inputs": [
        {
          "internalType": "address",
          "name": "token",
          "type": "address"
        },
        {
          "internalType": "string",
          "name": "_version",
          "type": "string"
        }
      ],
      "name": "initialize",
      "outputs": [],
      "stateMutability": "nonpayable",
      "type": "function"
    },
    {
      "inputs": [],
      "name": "owner",
      "outputs": [
        {
          "internalType": "address",
          "name": "",
          "type": "address"
        }
      ],
      "stateMutability": "view",
      "type": "function"
    },
    {
      "inputs": [],
      "name": "renounceOwnership",
      "outputs": [],
      "stateMutability": "nonpayable",
      "type": "function"
    },
    {
      "inputs": [
        {
          "internalType": "address",
          "name": "newOwner",
          "type": "address"
        }
      ],
      "name": "transferOwnership",
      "outputs": [],
      "stateMutability": "nonpayable",
      "type": "function"
    },
    {
      "inputs": [],
      "name": "versionContract",
      "outputs": [
        {
          "internalType": "string",
          "name": "",
          "type": "string"
        }
      ],
      "stateMutability": "view",
      "type": "function"
    }
  ],
  "bytecode": "0x608060405234801561001057600080fd5b50611155806100206000396000f3fe60806040523480156200001157600080fd5b5060043610620000935760003560e01c8063a882d8661162000062578063a882d8661462000118578063adedd3211462000131578063f2fde38b1462000148578063f399e22e146200015f57600080fd5b8063384ba7f21462000098578063715018a614620000e157806373448c4614620000ed5780638da5cb5b1462000106575b600080fd5b620000c4620000a936600462000568565b6000908152606560205260409020546001600160a01b031690565b6040516001600160a01b0390911681526020015b60405180910390f35b620000eb62000176565b005b620000f7620001ba565b604051908152602001620000d8565b6033546001600160a01b0316620000c4565b62000122620001cb565b604051620000d89190620005ca565b620000eb6200014236600462000691565b62000265565b620000eb6200015936600462000719565b62000370565b620000eb6200017036600462000737565b62000412565b6033546001600160a01b03163314620001ac5760405162461bcd60e51b8152600401620001a39062000781565b60405180910390fd5b620001b8600062000508565b565b6000620001c660665490565b905090565b606060678054620001dc90620007b6565b80601f01602080910402602001604051908101604052809291908181526020018280546200020a90620007b6565b80156200025b5780601f106200022f576101008083540402835291602001916200025b565b820191906000526020600020905b8154815290600101906020018083116200023d57829003601f168201915b5050505050905090565b6033546001600160a01b03163314620002925760405162461bcd60e51b8152600401620001a39062000781565b6068546040516000916001600160a01b03169063266c45bb60e11b90620002c09086908690602401620007f2565b60408051601f198184030181529181526020820180516001600160e01b03166001600160e01b0319909416939093179092529051620002ff906200055a565b6200030c92919062000824565b604051809103906000f08015801562000329573d6000803e3d6000fd5b50905060006200033860665490565b600081815260656020526040902080546001600160a01b0319166001600160a01b038516179055606680546001019055905050505050565b6033546001600160a01b031633146200039d5760405162461bcd60e51b8152600401620001a39062000781565b6001600160a01b038116620004045760405162461bcd60e51b815260206004820152602660248201527f4f776e61626c653a206e6577206f776e657220697320746865207a65726f206160448201526564647265737360d01b6064820152608401620001a3565b6200040f8162000508565b50565b600054610100900460ff166200042f5760005460ff161562000433565b303b155b620004985760405162461bcd60e51b815260206004820152602e60248201527f496e697469616c697a61626c653a20636f6e747261637420697320616c72656160448201526d191e481a5b9a5d1a585b1a5e995960921b6064820152608401620001a3565b600054610100900460ff16158015620004bb576000805461ffff19166101011790555b620004c63262000508565b6067620004d48382620008a4565b50606880546001600160a01b0319166001600160a01b038516179055801562000503576000805461ff00191690555b505050565b603380546001600160a01b038381166001600160a01b0319831681179093556040519116919082907f8be0079c531659141344cd1fd0a4f28419497f9722a3daafe3b4186f6b6457e090600090a35050565b6107ae806200097283390190565b6000602082840312156200057b57600080fd5b5035919050565b6000815180845260005b81811015620005aa576020818501810151868301820152016200058c565b506000602082860101526020601f19601f83011685010191505092915050565b602081526000620005df602083018462000582565b9392505050565b634e487b7160e01b600052604160045260246000fd5b600082601f8301126200060e57600080fd5b813567ffffffffffffffff808211156200062c576200062c620005e6565b604051601f8301601f19908116603f01168101908282118183101715620006575762000657620005e6565b816040528381528660208588010111156200067157600080fd5b836020870160208301376000602085830101528094505050505092915050565b60008060408385031215620006a557600080fd5b823567ffffffffffffffff80821115620006be57600080fd5b620006cc86838701620005fc565b93506020850135915080821115620006e357600080fd5b50620006f285828601620005fc565b9150509250929050565b80356001600160a01b03811681146200071457600080fd5b919050565b6000602082840312156200072c57600080fd5b620005df82620006fc565b600080604083850312156200074b57600080fd5b6200075683620006fc565b9150602083013567ffffffffffffffff8111156200077357600080fd5b620006f285828601620005fc565b6020808252818101527f4f776e61626c653a2063616c6c6572206973206e6f7420746865206f776e6572604082015260600190565b600181811c90821680620007cb57607f821691505b602082108103620007ec57634e487b7160e01b600052602260045260246000fd5b50919050565b60408152600062000807604083018562000582565b82810360208401526200081b818562000582565b95945050505050565b6001600160a01b03831681526040602082018190526000906200084a9083018462000582565b949350505050565b601f8211156200050357600081815260208120601f850160051c810160208610156200087b5750805b601f850160051c820191505b818110156200089c5782815560010162000887565b505050505050565b815167ffffffffffffffff811115620008c157620008c1620005e6565b620008d981620008d28454620007b6565b8462000852565b602080601f831160018114620009115760008415620008f85750858301515b600019600386901b1c1916600185901b1785556200089c565b600085815260208120601f198616915b82811015620009425788860151825594840194600190910190840162000921565b5085821015620009615787850151600019600388901b60f8161c191681555b5050505050600190811b0190555056fe608060405234801561001057600080fd5b506040516107ae3803806107ae83398101604081905261002f91610356565b818161005c60017f360894a13ba1a3210667c828492db98dca3e2076cc3735a920a3ca505d382bbd610424565b6000805160206107678339815191521461007857610078610445565b6100848282600061008d565b505050506104aa565b610096836100c3565b6000825111806100a35750805b156100be576100bc838361010360201b6100291760201c565b505b505050565b6100cc81610131565b6040516001600160a01b038216907fbc7cd75a20ee27fd9adebab32041f755214dbc6bffa90cc0225b39da2e5c2d3b90600090a250565b60606101288383604051806060016040528060278152602001610787602791396101f1565b90505b92915050565b610144816102d160201b6100551760201c565b6101ab5760405162461bcd60e51b815260206004820152602d60248201527f455243313936373a206e657720696d706c656d656e746174696f6e206973206e60448201526c1bdd08184818dbdb9d1c9858dd609a1b60648201526084015b60405180910390fd5b806101d060008051602061076783398151915260001b6102e060201b6100641760201c565b80546001600160a01b0319166001600160a01b039290921691909117905550565b60606001600160a01b0384163b6102595760405162461bcd60e51b815260206004820152602660248201527f416464726573733a2064656c65676174652063616c6c20746f206e6f6e2d636f6044820152651b9d1c9858dd60d21b60648201526084016101a2565b600080856001600160a01b031685604051610274919061045b565b600060405180830381855af49150503d80600081146102af576040519150601f19603f3d011682016040523d82523d6000602084013e6102b4565b606091505b5090925090506102c58282866102e3565b925050505b9392505050565b6001600160a01b03163b151590565b90565b606083156102f25750816102ca565b8251156103025782518084602001fd5b8160405162461bcd60e51b81526004016101a29190610477565b634e487b7160e01b600052604160045260246000fd5b60005b8381101561034d578181015183820152602001610335565b50506000910152565b6000806040838503121561036957600080fd5b82516001600160a01b038116811461038057600080fd5b60208401519092506001600160401b038082111561039d57600080fd5b818501915085601f8301126103b157600080fd5b8151818111156103c3576103c361031c565b604051601f8201601f19908116603f011681019083821181831017156103eb576103eb61031c565b8160405282815288602084870101111561040457600080fd5b610415836020830160208801610332565b80955050505050509250929050565b8181038181111561012b57634e487b7160e01b600052601160045260246000fd5b634e487b7160e01b600052600160045260246000fd5b6000825161046d818460208701610332565b9190910192915050565b6020815260008251806020840152610496816040850160208701610332565b601f01601f19169190910160400192915050565b6102ae806104b96000396000f3fe60806040523661001357610011610017565b005b6100115b610027610022610067565b61009f565b565b606061004e8383604051806060016040528060278152602001610252602791396100c3565b9392505050565b6001600160a01b03163b151590565b90565b600061009a7f360894a13ba1a3210667c828492db98dca3e2076cc3735a920a3ca505d382bbc546001600160a01b031690565b905090565b3660008037600080366000845af43d6000803e8080156100be573d6000f35b3d6000fd5b60606001600160a01b0384163b6101305760405162461bcd60e51b815260206004820152602660248201527f416464726573733a2064656c65676174652063616c6c20746f206e6f6e2d636f6044820152651b9d1c9858dd60d21b60648201526084015b60405180910390fd5b600080856001600160a01b03168560405161014b9190610202565b600060405180830381855af49150503d8060008114610186576040519150601f19603f3d011682016040523d82523d6000602084013e61018b565b606091505b509150915061019b8282866101a5565b9695505050505050565b606083156101b457508161004e565b8251156101c45782518084602001fd5b8160405162461bcd60e51b8152600401610127919061021e565b60005b838110156101f95781810151838201526020016101e1565b50506000910152565b600082516102148184602087016101de565b9190910192915050565b602081526000825180602084015261023d8160408501602087016101de565b601f01601f1916919091016040019291505056fe416464726573733a206c6f772d6c6576656c2064656c65676174652063616c6c206661696c6564a2646970667358221220724bfb698fa34a07ae86d181d8b78d5ea49b803312c8e38c032eef348c9d4b2e64736f6c63430008110033360894a13ba1a3210667c828492db98dca3e2076cc3735a920a3ca505d382bbc416464726573733a206c6f772d6c6576656c2064656c65676174652063616c6c206661696c6564a26469706673582212201ed04e52247186bf6332e6116a9e666c6cea5a91530ef63c68640c0c7b59fc6164736f6c63430008110033",
  "linkReferences": {},
  "deployedLinkReferences": {}
}